{
  "_format": "hh-sol-artifact-1",
  "contractName": "Voting",
  "sourceName": "contracts/voting.sol",
  "abi": [
    {
      "inputs": [],
      "stateMutability": "nonpayable",
      "type": "constructor"
    },
    {
      "anonymous": false,
      "inputs": [
        {
          "indexed": true,
          "internalType": "address",
          "name": "voter",
          "type": "address"
        },
        {
          "indexed": true,
          "internalType": "uint256",
          "name": "candidateId",
          "type": "uint256"
        }
      ],
      "name": "Voted",
      "type": "event"
    },
    {
      "inputs": [
        {
          "internalType": "string",
          "name": "_name",
          "type": "string"
        }
      ],
      "name": "addCandidate",
      "outputs": [],
      "stateMutability": "nonpayable",
      "type": "function"
    },
    {
      "inputs": [
        {
          "internalType": "uint256",
          "name": "",
          "type": "uint256"
        }
      ],
      "name": "candidates",
      "outputs": [
        {
          "internalType": "uint256",
          "name": "id",
          "type": "uint256"
        },
        {
          "internalType": "string",
          "name": "name",
          "type": "string"
        },
        {
          "internalType": "uint256",
          "name": "voteCount",
          "type": "uint256"
        }
      ],
      "stateMutability": "view",
      "type": "function"
    },
    {
      "inputs": [],
      "name": "candidatesCount",
      "outputs": [
        {
          "internalType": "uint256",
          "name": "",
          "type": "uint256"
        }
      ],
      "stateMutability": "view",
      "type": "function"
    },
    {
      "inputs": [],
      "name": "getAllCandidates",
      "outputs": [
        {
          "components": [
            {
              "internalType": "uint256",
              "name": "id",
              "type": "uint256"
            },
            {
              "internalType": "string",
              "name": "name",
              "type": "string"
            },
            {
              "internalType": "uint256",
              "name": "voteCount",
              "type": "uint256"
            }
          ],
          "internalType": "struct Voting.Candidate[]",
          "name": "",
          "type": "tuple[]"
        }
      ],
      "stateMutability": "view",
      "type": "function"
    },
    {
      "inputs": [
        {
          "internalType": "address",
          "name": "",
          "type": "address"
        }
      ],
      "name": "hasVoted",
      "outputs": [
        {
          "internalType": "bool",
          "name": "",
          "type": "bool"
        }
      ],
      "stateMutability": "view",
      "type": "function"
    },
    {
      "inputs": [
        {
          "internalType": "address",
          "name": "",
          "type": "address"
        }
      ],
      "name": "isVoterRegistered",
      "outputs": [
        {
          "internalType": "bool",
          "name": "",
          "type": "bool"
        }
      ],
      "stateMutability": "view",
      "type": "function"
    },
    {
      "inputs": [],
      "name": "owner",
      "outputs": [
        {
          "internalType": "address",
          "name": "",
          "type": "address"
        }
      ],
      "stateMutability": "view",
      "type": "function"
    },
    {
      "inputs": [
        {
          "internalType": "address",
          "name": "_voterAddress",
          "type": "address"
        }
      ],
      "name": "registerVoter",
      "outputs": [],
      "stateMutability": "nonpayable",
      "type": "function"
    },
    {
      "inputs": [
        {
          "internalType": "uint256",
          "name": "_candidateId",
          "type": "uint256"
        }
      ],
      "name": "vote",
      "outputs": [],
      "stateMutability": "nonpayable",
      "type": "function"
    }
  ],
  "bytecode": "0x608060405234801561001057600080fd5b50336000806101000a81548173ffffffffffffffffffffffffffffffffffffffff021916908373ffffffffffffffffffffffffffffffffffffffff1602179055506114d3806100606000396000f3fe608060405234801561001057600080fd5b50600436106100935760003560e01c80633477ee2e116100665780633477ee2e1461012057806338db6dd314610152578063462e91ec1461016e5780638da5cb5b1461018a578063eb2119db146101a857610093565b80630121b93f1461009857806309eef43e146100b45780632d35a8a2146100e45780632e6997fe14610102575b600080fd5b6100b260048036038101906100ad9190610988565b6101d8565b005b6100ce60048036038101906100c99190610a13565b61040d565b6040516100db9190610a5b565b60405180910390f35b6100ec61042d565b6040516100f99190610a85565b60405180910390f35b61010a610433565b6040516101179190610c51565b60405180910390f35b61013a60048036038101906101359190610988565b6105a8565b60405161014993929190610cbd565b60405180910390f35b61016c60048036038101906101679190610a13565b61065a565b005b61018860048036038101906101839190610e30565b6107d0565b005b6101926108d9565b60405161019f9190610e88565b60405180910390f35b6101c260048036038101906101bd9190610a13565b6108fd565b6040516101cf9190610a5b565b60405180910390f35b600360003373ffffffffffffffffffffffffffffffffffffffff1673ffffffffffffffffffffffffffffffffffffffff16815260200190815260200160002060009054906101000a900460ff16610264576040517f08c379a000000000000000000000000000000000000000000000000000000000815260040161025b90610eef565b60405180910390fd5b600460003373ffffffffffffffffffffffffffffffffffffffff1673ffffffffffffffffffffffffffffffffffffffff16815260200190815260200160002060009054906101000a900460ff16156102f1576040517f08c379a00000000000000000000000000000000000000000000000000000000081526004016102e890610f5b565b60405180910390fd5b60008111801561030357506002548111155b610342576040517f08c379a000000000000000000000000000000000000000000000000000000000815260040161033990610fc7565b60405180910390fd5b60016000828152602001908152602001600020600201600081548092919061036990611016565b91905055506001600460003373ffffffffffffffffffffffffffffffffffffffff1673ffffffffffffffffffffffffffffffffffffffff16815260200190815260200160002060006101000a81548160ff021916908315150217905550803373ffffffffffffffffffffffffffffffffffffffff167f4d99b957a2bc29a30ebd96a7be8e68fe50a3c701db28a91436490b7d53870ca460405160405180910390a350565b60046020528060005260406000206000915054906101000a900460ff1681565b60025481565b6060600060025467ffffffffffffffff81111561045357610452610d05565b5b60405190808252806020026020018201604052801561048c57816020015b61047961091d565b8152602001906001900390816104715790505b5090506000600190505b60025481116105a05760016000828152602001908152602001600020604051806060016040529081600082015481526020016001820180546104d79061108d565b80601f01602080910402602001604051908101604052809291908181526020018280546105039061108d565b80156105505780601f1061052557610100808354040283529160200191610550565b820191906000526020600020905b81548152906001019060200180831161053357829003601f168201915b505050505081526020016002820154815250508260018361057191906110be565b81518110610582576105816110f2565b5b6020026020010181905250808061059890611016565b915050610496565b508091505090565b60016020528060005260406000206000915090508060000154908060010180546105d19061108d565b80601f01602080910402602001604051908101604052809291908181526020018280546105fd9061108d565b801561064a5780601f1061061f5761010080835404028352916020019161064a565b820191906000526020600020905b81548152906001019060200180831161062d57829003601f168201915b5050505050908060020154905083565b60008054906101000a900473ffffffffffffffffffffffffffffffffffffffff1673ffffffffffffffffffffffffffffffffffffffff163373ffffffffffffffffffffffffffffffffffffffff16146106e8576040517f08c379a00000000000000000000000000000000000000000000000000000000081526004016106df90611193565b60405180910390fd5b600360008273ffffffffffffffffffffffffffffffffffffffff1673ffffffffffffffffffffffffffffffffffffffff16815260200190815260200160002060009054906101000a900460ff1615610775576040517f08c379a000000000000000000000000000000000000000000000000000000000815260040161076c906111ff565b60405180910390fd5b6001600360008373ffffffffffffffffffffffffffffffffffffffff1673ffffffffffffffffffffffffffffffffffffffff16815260200190815260200160002060006101000a81548160ff02191690831515021790555050565b60008054906101000a900473ffffffffffffffffffffffffffffffffffffffff1673ffffffffffffffffffffffffffffffffffffffff163373ffffffffffffffffffffffffffffffffffffffff161461085e576040517f08c379a000000000000000000000000000000000000000000000000000000000815260040161085590611193565b60405180910390fd5b6002600081548092919061087190611016565b91905055506040518060600160405280600254815260200182815260200160008152506001600060025481526020019081526020016000206000820151816000015560208201518160010190816108c891906113cb565b506040820151816002015590505050565b60008054906101000a900473ffffffffffffffffffffffffffffffffffffffff1681565b60036020528060005260406000206000915054906101000a900460ff1681565b60405180606001604052806000815260200160608152602001600081525090565b6000604051905090565b600080fd5b600080fd5b6000819050919050565b61096581610952565b811461097057600080fd5b50565b6000813590506109828161095c565b92915050565b60006020828403121561099e5761099d610948565b5b60006109ac84828501610973565b91505092915050565b600073ffffffffffffffffffffffffffffffffffffffff82169050919050565b60006109e0826109b5565b9050919050565b6109f0816109d5565b81146109fb57600080fd5b50565b600081359050610a0d816109e7565b92915050565b600060208284031215610a2957610a28610948565b5b6000610a37848285016109fe565b91505092915050565b60008115159050919050565b610a5581610a40565b82525050565b6000602082019050610a706000830184610a4c565b92915050565b610a7f81610952565b82525050565b6000602082019050610a9a6000830184610a76565b92915050565b600081519050919050565b600082825260208201905092915050565b6000819050602082019050919050565b610ad581610952565b82525050565b600081519050919050565b600082825260208201905092915050565b60005b83811015610b15578082015181840152602081019050610afa565b60008484015250505050565b6000601f19601f8301169050919050565b6000610b3d82610adb565b610b478185610ae6565b9350610b57818560208601610af7565b610b6081610b21565b840191505092915050565b6000606083016000830151610b836000860182610acc565b5060208301518482036020860152610b9b8282610b32565b9150506040830151610bb06040860182610acc565b508091505092915050565b6000610bc78383610b6b565b905092915050565b6000602082019050919050565b6000610be782610aa0565b610bf18185610aab565b935083602082028501610c0385610abc565b8060005b85811015610c3f5784840389528151610c208582610bbb565b9450610c2b83610bcf565b925060208a01995050600181019050610c07565b50829750879550505050505092915050565b60006020820190508181036000830152610c6b8184610bdc565b905092915050565b600082825260208201905092915050565b6000610c8f82610adb565b610c998185610c73565b9350610ca9818560208601610af7565b610cb281610b21565b840191505092915050565b6000606082019050610cd26000830186610a76565b8181036020830152610ce48185610c84565b9050610cf36040830184610a76565b949350505050565b600080fd5b600080fd5b7f4e487b7100000000000000000000000000000000000000000000000000000000600052604160045260246000fd5b610d3d82610b21565b810181811067ffffffffffffffff82111715610d5c57610d5b610d05565b5b80604052505050565b6000610d6f61093e565b9050610d7b8282610d34565b919050565b600067ffffffffffffffff821115610d9b57610d9a610d05565b5b610da482610b21565b9050602081019050919050565b82818337600083830152505050565b6000610dd3610dce84610d80565b610d65565b905082815260208101848484011115610def57610dee610d00565b5b610dfa848285610db1565b509392505050565b600082601f830112610e1757610e16610cfb565b5b8135610e27848260208601610dc0565b91505092915050565b600060208284031215610e4657610e45610948565b5b600082013567ffffffffffffffff811115610e6457610e6361094d565b5b610e7084828501610e02565b91505092915050565b610e82816109d5565b82525050565b6000602082019050610e9d6000830184610e79565b92915050565b7f596f7520617265206e6f742061207265676973746572656420766f7465722e00600082015250565b6000610ed9601f83610c73565b9150610ee482610ea3565b602082019050919050565b60006020820190508181036000830152610f0881610ecc565b9050919050565b7f596f75206861766520616c7265616479206361737420796f757220766f74652e600082015250565b6000610f45602083610c73565b9150610f5082610f0f565b602082019050919050565b60006020820190508181036000830152610f7481610f38565b9050919050565b7f496e76616c69642063616e6469646174652049442e0000000000000000000000600082015250565b6000610fb1601583610c73565b9150610fbc82610f7b565b602082019050919050565b60006020820190508181036000830152610fe081610fa4565b9050919050565b7f4e487b7100000000000000000000000000000000000000000000000000000000600052601160045260246000fd5b600061102182610952565b91507fffffffffffffffffffffffffffffffffffffffffffffffffffffffffffffffff820361105357611052610fe7565b5b600182019050919050565b7f4e487b7100000000000000000000000000000000000000000000000000000000600052602260045260246000fd5b600060028204905060018216806110a557607f821691505b6020821081036110b8576110b761105e565b5b50919050565b60006110c982610952565b91506110d483610952565b92508282039050818111156110ec576110eb610fe7565b5b92915050565b7f4e487b7100000000000000000000000000000000000000000000000000000000600052603260045260246000fd5b7f4f6e6c7920746865206f776e65722063616e2063616c6c20746869732066756e60008201527f6374696f6e2e0000000000000000000000000000000000000000000000000000602082015250565b600061117d602683610c73565b915061118882611121565b604082019050919050565b600060208201905081810360008301526111ac81611170565b9050919050565b7f566f74657220697320616c726561647920726567697374657265642e00000000600082015250565b60006111e9601c83610c73565b91506111f4826111b3565b602082019050919050565b60006020820190508181036000830152611218816111dc565b9050919050565b60008190508160005260206000209050919050565b60006020601f8301049050919050565b600082821b905092915050565b6000600883026112817fffffffffffffffffffffffffffffffffffffffffffffffffffffffffffffffff82611244565b61128b8683611244565b95508019841693508086168417925050509392505050565b6000819050919050565b60006112c86112c36112be84610952565b6112a3565b610952565b9050919050565b6000819050919050565b6112e2836112ad565b6112f66112ee826112cf565b848454611251565b825550505050565b600090565b61130b6112fe565b6113168184846112d9565b505050565b5b8181101561133a5761132f600082611303565b60018101905061131c565b5050565b601f82111561137f576113508161121f565b61135984611234565b81016020851015611368578190505b61137c61137485611234565b83018261131b565b50505b505050565b600082821c905092915050565b60006113a260001984600802611384565b1980831691505092915050565b60006113bb8383611391565b9150826002028217905092915050565b6113d482610adb565b67ffffffffffffffff8111156113ed576113ec610d05565b5b6113f7825461108d565b61140282828561133e565b600060209050601f8311600181146114355760008415611423578287015190505b61142d85826113af565b865550611495565b601f1984166114438661121f565b60005b8281101561146b57848901518255600182019150602085019450602081019050611446565b868310156114885784890151611484601f891682611391565b8355505b6001600288020188555050505b50505050505056fea2646970667358221220685781c37a9431f190a403ef58bda2720a931efb2484e3fdd3d4b0fce79be97d64736f6c63430008180033",
  "linkReferences": {},
  "deployedLinkReferences": {}
}